:100000000C942A000C9434000C9434000C943400AA
:100010000C9434000C9434000C9434000C94340090
:100020000C9434000C9434000C9434000C94340080
:100030000C9434000C9434000C9434000C94340070
:100040000C9434000C9434000C9434000C94340060
:100050000C94340011241FBECFE5D8E0DEBFCDBF25
:100060000E944C000C945C000C94000087B3806BE1
:1000700087BB81ED8DB908958FB9779BFECF089529
:10008000BE9A80EC8DB90895779BFECF8FB108950D
:100090008FB9779BFECF08950E94360082E090E0F2
:1000A0000E943C002FEF89E698E12150804090406B
:0C00B000E1F700C00000F2CFF894FFCF91
:00000001FF
