:100000000C9434000C943E000C943E000C943E0082
:100010000C943E000C943E000C943E000C943E0068
:100020000C943E000C943E000C943E000C943E0058
:100030000C943E000C943E000C943E000C943E0048
:100040000C943E000C943E000C943E000C943E0038
:100050000C943E000C943E000C943E000C943E0028
:100060000C943E000C943E0011241FBECFEFD8E04C
:10007000DEBFCDBF0E94B7010C9456020C94000065
:1000800084B18C6284B981ED8CBD08958EBD0DB4B0
:1000900007FEFDCF0895249A80EC8CBD08950DB421
:1000A00007FEFDCF8EB508958EBD0DB407FEFDCFC2
:1000B0000895559A549A539A529A089580FF02C00F
:1000C0005A9A01C05A9881FF02C05B9A01C05B989E
:1000D00082FF02C05C9A01C05C9883FF02C05D9AF7
:1000E00008955D980895CF93C82F0E945900599A9A
:1000F0008C2F82958F700E945E005998599A8C2F90
:100100000E945E0059988FEE90E00197F1F700C0D1
:100110000000CF91089558980C947300589A0C944D
:1001200073000C948E00CF93DF93EC0189918823A8
:1001300019F00E948E00FACFDF91CF910895CF93EE
:10014000DF93FC018491EF012196882321F00E9426
:100150008E00FE01F7CFDF91CF910895CF93DF930B
:10016000EC0121960E944E02882321F00E948E000D
:10017000CE01F6CFDF91CF910895CF93DF93CDB726
:10018000DEB761970FB6F894DEBF0FBECDBF4AE071
:10019000BE016F5F7F4F0E94E8010E94930061964D
:1001A0000FB6F894DEBF0FBECDBFDF91CF9108959B
:1001B000CF93DF93CDB7DEB761970FB6F894DEBF6C
:1001C0000FBECDBF20E1AE014F5F5F4F0E94F30134
:1001D0000E94930061960FB6F894DEBF0FBECDBFAC
:1001E000DF91CF910895EF92FF920F931F93CF93DA
:1001F000DF9300D0CDB7DEB78770880F880F880FE8
:10020000805C69837A830E948B006981E62E7A8103
:10021000F72E8701085F1F4FF70181917F010E9430
:100220008E00E016F106C1F70F900F90DF91CF918D
:100230001F910F91FF90EF9008950F931F93CF930D
:10024000DF93EB018770880F880F880F805C0E9416
:100250008B008E01085F1F4FFE0184910E948E006B
:100260002196C017D107C1F7DF91CF911F910F9150
:100270000895EF92FF920F931F93CF93DF93EB01BB
:100280008770880F880F880F805C0E948B008E011A
:10029000085F1F4F7E018FEFE81AF80ACE010E9417
:1002A0004E020E948E00E701E016F10699F7DF91F9
:1002B000CF911F910F91FF90EF900895813009F435
:1002C00080E46058860F0C948B0081E00E948B00C4
:1002D00087E496E20197F1F700C0000008950E94BC
:1002E0005900509A519A589A599A8FE295E7019776
:1002F000F1F700C0000059985898599A83E00E947D
:100300005E00599887E090E20197F1F700C0000085
:10031000599A83E00E945E00599887EC90E001971B
:10032000F1F700C00000599A83E00E945E005998DE
:1003300087EC90E00197F1F700C00000599A82E045
:100340000E945E00599887EC90E00197F1F700C099
:10035000000088E20E948B0088E00E948B008CE005
:100360000E948B0086E00E948B000C946501CF9365
:10037000DF931F92CDB7DEB70E944B000E946F0142
:100380000E94650183E70E9491000E944F008983CB
:100390000E946501898190E00E94BD0081E60E9473
:1003A00091000E944F0090E00E94BD0082E60E94F2
:1003B00091000E944F0090E00E94BD0083E60E94E1
:1003C00091000E944F0090E00E94BD0084E6DBCFC8
:1003D000BB274A3031F4992322F4BDE290958195F0
:1003E0009F4F0C942502BB272A3051F4992342F4E5
:1003F000BDE290958095709561957F4F8F4F9F4F8F
:100400000C940302BB27FA01A62F62177105810520
:100410009105330B30FB66F0AA27660F771F881F04
:10042000991FAA1FA21710F0A21B63953850A9F7B5
:10043000A05DAA3308F0A95DA19336F7B111B1937D
:100440001082CA010C943E02BB27FB015527AA2744
:10045000880F991FAA1FA41710F0A41B8395505151
:10046000B9F7A05DAA3308F0A95DA193009779F7C9
:10047000B111B1931192CB010C943E02DC01FC014D
:10048000672F71917723E1F7329704C07C916D93C8
:1004900070836291AE17BF07C8F30895F999FECF34
:1004A00092BD81BDF89A992780B50895F894FFCF41
:00000001FF
